:020000041000EA
:10000000002008205D0100101B0100101D010010E0
:100010001101001011010010110100101101001058
:100020001901001019010010190100101F01001022
:10003000110100101901001021010010230100100E
:100040001101001011010010110100101101001028
:100050001101001011010010110100101101001018
:100060001101001011010010110100101101001008
:1000700011010010110100101101001011010010F8
:1000800011010010110100101101001011010010E8
:1000900011010010110100101101001011010010D8
:1000A00011010010110100101101001011010010C8
:1000B00011010010110100101101001011010010B8
:1000C00011010010110100101101001011010010A8
:1000D0001101001011010010110100101101001098
:1000E0001101001011010010110100101101001088
:1000F0001101001011010010110100101101001078
:100100001101001011010010110100101101001067
:10011000EFF30580103800BE00BE00BE00BE00BE7A
:1001200000BE00BEF2EB8871E41201101C13011036
:10013000A001001090A31AE7D3DEFFFF42012110B7
:10014000FF010000B42A0100793512AB4FF0000026
:100150001E49086006C881F3088810474FF05040D8
:10016000006810B14FF00000F2E70DA40ECC00299A
:1001700002D000F012F8F9E71549164A002000E015
:1001800001C19142FCD11449884714498847144958
:10019000884700BEFDE701C901C29A42FBD3704700
:1001A0001C13011010010020E0190020EC2B01109D
:1001B0000000082000000820EC2B0110001008208F
:1001C00000100820000000007047000008ED00E06B
:1001D000E0190020A04700207D430010D11200103C
:1001E00041430010F8B500BF064B0749C91A8910F2
:1001F00048BF0131491003D0044B0BB101481847E7
:10020000704700BFE0190020E01900200000000046
:1002100008B5054B1BB105490548AFF30080BDE8A3
:100220000840FFF7E1BF00BF00000000F0450020DC
:1002300008C900100130042803D8024B1B5C41ECB4
:100240004030704704EC001010B5002405E0044B6A
:10025000195D2046FFF7EEFF0134032CF7DD10BDDA
:10026000C84100204FF05043586800F02000B0FA19
:1002700080F04009704701460023184602E0CA5C3E
:10028000104401330B2BFAD97047000000B587B03A
:100290001A4B0FCB0DF1180C0CE90F000146184B4F
:1002A000984202D1039B012B06D0039A154804F013
:1002B000B1F907B05DF804FB02A8FFF7DCFF059A6F
:1002C000824201D100230CE001460F4804F0A2F95C
:1002D000EFE703F118026A4412F8081C0B4AD154E4
:1002E0000133032BF5DD0949CB7800938B784A78ED
:1002F0000978074804F08EF9DBE700BF00F03F10F3
:1003000059414C5208C9001060C90010C841002072
:10031000B8C90010F0B5C7B002F0BEF9264A13689C
:10032000526853EA020408D0C31A61EB0202234C5C
:100330009C424FF0000393413CDA1F4B1860596018
:100340001F4B429301234393002307E01D4AD15CD6
:1003500003F58C726A4402F8081C0133032BF5DDA7
:1003600042AD2846FFF787FF4590EFF3108772B63E
:10037000154E4FF4805130460CF086FA02AC4FF423
:100380008072FF2120460BF051FB95E80F0084E8B6
:100390000F004FF48072214630460CF051FA87F37B
:1003A00010880849CB7800938B784A7809780748F9
:1003B00004F030F947B0F0BD601B00207F841E00C0
:1003C00059414C52C841002000F03F00F0C90010D4
:1003D00003280FD808B5084B1B5C8B4209D0064B8D
:1003E0001954064B1B5C41EC4030FFF723FFFFF72D
:1003F00091FF08BD704700BFC84100200CEC001001
:10040000032800D9704708B5034B195C81F001013E
:10041000FFF7DEFF08BD00BFC841002010B5002473
:1004200003E02046FFF7ECFF0134032CF9DD10BD9B
:1004300038B50546002404E029462046FFF7C8FFEA
:100440000134032CF8DD38BD08B5114B18700228B3
:1004500011D000230F4A13700A2243EC402002F00F
:100460001BF910F57A7041F1000100290ADB0A4BF3
:100470001860596008BD0123064A13700A2243EC34
:100480004020F7E74FF0FF306FF00041EFE700BF8B
:100490009347002092470020681B002010B5214B95
:1004A0001B78032B05D0042B06D0012B12D19624E8
:1004B00004E04FF4AF6401E04FF4617402F0ECF833
:1004C000194B1A685B68121A63EB0103012A73F176
:1004D000000300DB10BD154A137883F0010313708D
:1004E0000A2243EC402002F0D7F863011B1B62EBA9
:1004F0000202920042EA93729B001B1942F1000231
:10050000D20042EA5372DB00C01842EB0102002A1B
:1005100003DB054B18605A60DCE74FF0FF306FF0EB
:100520000042F6E793470020681B00209247002016
:1005300038B500240CE04FF4FA7001F08BFF042D65
:1005400005D80A4B1B5D4FF0000242EC40300134ED
:10055000042C09DC2546042CEDD8044B1B5D4FF020
:10056000010242EC4030E6E738BD00BF04EC001069
:1005700038B5FFF78BFE002410E00A4B1D5D2846BE
:1005800000F08CFF4FF0010343EC4450064B195D23
:1005900041EC40502046FFF74DFE0134032CECDDCA
:1005A00038BD00BF0CEC0010C841002038B5002455
:1005B00000E00134042C0FDC084B1D5D284600F0E0
:1005C0006DFF4FF0010343EC4450042CF1D84FF081
:1005D000000343EC4050ECE738BD00BF04EC0010D2
:1005E00008B50A4A13889BB201339BB21380138863
:1005F0009BB240F2E632934200D808BD034B002282
:100600001A8009F02FFB09F0FFFEF6E77E47002075
:1006100010B582B00446684604F026FC022323701D
:100620009DF8003063709DF80130A3709DF8023092
:10063000E3709DF8033023719DF80430637102B0BC
:1006400010BD08B50F2000F029FF0F20002242EC5A
:100650004400012100F006FF08BD08B5052000F0A8
:100660001DFF0520002242EC4400012100F0FAFEAB
:1006700008BD000008B5024803F09DFFFEE700BF7B
:1006800024CA001038B502F007F805460C46FFF7FB
:10069000E9FD00283CD0244B1B784BB9234B1D604F
:1006A0005C60214B01221A70214B00221A7039E044
:1006B0001F4B1B78002B35D11C4A13685268ED1A6A
:1006C00064EB02044FF47A720023284621460CF0B2
:1006D000D7F8184BAB424FF00003A34122DA024691
:1006E0000B46154803F096FF0020FFF7A1FEEFF33D
:1006F000108472B64FF4805110480CF0C5F884F3A2
:1007000010880F4803F057FF094B01221A7009E0C7
:100710000023054A1370054A00200021C2E90001A8
:10072000034A137038BD00BF97470020801B00208C
:10073000964700203F420F003CCA001000F03F00E7
:1007400084CA001008B5064803F035FF05490020AB
:1007500009F01AFA0448054A014608F0F9FE08BDF6
:10076000C0CA0010C82900207107001075060010CB
:1007700070B596B0184D284609F07CFA05F10800CE
:1007800009F084FA281D09F08DFA05F14C0009F0F2
:1007900095FAAC1F022385F861300A355826324697
:1007A000294668460BF03EFE94E80F0008F072FD03
:1007B0003246294668460BF035FE94E80F0008F0F3
:1007C000BDFD09F087FA0146044803F023FF044BFE
:1007D00001221A7016B070BD1A130020D4CA00107E
:1007E0008F47002008B5084B00221A725A60012179
:1007F00059701A845A8483F8242083F825209A6239
:10080000042007F00FF908BDD012002008B543F20C
:10081000880008F089FA32280DD0042007F002F988
:100820000121054808F046FA002340F6B8320321BA
:10083000042007F033F908BD880001002DE9F041DC
:10084000C6B004460D4683000133DB0003F540507B
:1008500008F06AFA322803D0002046B0BDE8F081E3
:10086000204608F02FFB064600284EDDFF2800DD5D
:10087000FF260021ADF812110DF110084FF480721F
:1008800040460BF0D3F80DF10F0204238DF80F3022
:10089000204FFE63FF238DF814318DF815318DF84C
:1008A00016318DF8173101920DF58973009345AB20
:1008B000B2B24146204607F002FD459B7B6300280B
:1008C00011DD98F8002087F83820F86300281EDD35
:1008D0009DF810306BB90422294645A80BF078F832
:1008E00068B90120B9E70B4BFF2283F83820D863A1
:1008F000ECE7084B042283F824200020ADE7054BE9
:10090000042283F824200020A7E70020A5E7002088
:10091000A3E700BFD0120020F0B583B004460F4615
:1009200001F0BAFE05460E46A24B1A685B68121A21
:1009300063EB0103012A73F100034CDB9E4B1B7830
:10094000002B00F02481002C00F021819B4B997B2F
:1009500093F80FC01A7C587C41EA0C0313431843E8
:1009600000F01581964B1B78002B53D0944B1B7ACB
:100970004BB9934A11695269491B62EB060201297E
:1009800072F100025EDB012B40F0088143F2880027
:1009900008F0CAF98A4B83F82500322800F09D80C0
:1009A0001A46012382F82430536801335360022B26
:1009B00002DD134600225A70FFF714FF01F06CFEAF
:1009C000804BC01841F100010029C0F281807C4BAE
:1009D00018615961E2E007F06FFE012814BF0020A2
:1009E0000120754B187001F057FE774BC01841F18C
:1009F0000001002909DB6F4B186059606E4B1B78B2
:100A0000002B9BD1FFF7EEFE98E74FF0FF306FF021
:100A10000041F0E76A4B01221A705A7000225A60B6
:100A20001A7201F039FE694BC01841F1000100292A
:100A300003DB634B1861596198E74FF0FF306FF0AB
:100A40000041F6E7FFF7E2FE43F2880008F06CF998
:100A50005B4B83F8250032281CD01A46012382F80C
:100A60002430536801335360022B02DD1346002209
:100A70005A7001F011FE534BC01841F100010029DA
:100A800003DB4F4A1061516188E04FF0FF306FF097
:100A90000041F6E74E4904200AF086FC484AD36A32
:100AA0000133D36201F0F8FD4A4BC01841F1000157
:100AB000002908DB424A9061D161012313720023AF
:100AC00082F824306AE04FF0FF306FF00041F1E728
:100AD0004FF0FF306FF0004179E7042008F0F2F9A1
:100AE000374B98621A6B01321A63002824DC344BAE
:100AF0009A69DB69521B63EB0603012A73F1000359
:100B00003ADB2F4A032382F82430536801335360C1
:100B1000022B02DD134600225A70294B00221A7262
:100B200001F0BAFD274BC01841F10001002929DB73
:100B3000234A1061516131E025490420FFF77EFE10
:100B40000028D4D01E4B00225A60012159701A721D
:100B500001F0A2FD1B4BC01841F10001002906DB8A
:100B6000174A10615161002382F8243016E04FF0DB
:100B7000FF306FF00041F3E7042008F0A3F9104BB9
:100B800098620BE04FF0FF306FF00041D0E70C4B64
:100B900000221A70012159705A601A72064B1B7894
:100BA000D3B1002C4AD0064A5278002A48D00024FB
:100BB00013E000BF701B002010130020141300204E
:100BC000D01200208096980020A1070040420F001C
:100BD0002213002080841E0001244A4A127872B930
:100BE000002C5DD0484A156056606BBB57B347492F
:100BF000474803F00FFD0A21464803F00BFD002C87
:100C00004ED0002F48D1404B18685B6850EA030271
:100C100042D02D1A66EB03064FF47A720023284661
:100C200031460BF02DFE3C4FBD4276F1000637DB1E
:100C30003A4B1B78002B33D1002513E00024CCE77E
:100C40000124CAE73649D3E72FB1304A032135489A
:100C500003F0E0FCCFE7324AF8E7334B5A5D334B01
:100C60005A550135032DF8DD2C4B01221A7042F242
:100C70001073009302460B462D4803F0CBFC2B4922
:100C8000CB7800938B784A7809782A4803F0C2FC25
:100C90000020FFF7CDFB03E017B1204B00221A70B4
:100CA000184B1B7803B11CB1164B1C7003B0F0BD80
:100CB000154B00200021C3E900011F4803F07BFC15
:100CC000164B1B78CBB11949CB7800938B784A78B7
:100CD00009781A4803F09EFC002505E0134B595D86
:100CE0002846FFF775FB0135032DF7DD0B4B00227E
:100CF0001A70134803F05FFCD6E7124803F05BFC60
:100D0000D2E700BF94470020781B0020F4CA0010EF
:100D1000FCCA001078CB0010809698009547002000
:100D2000F8CA001038CB0010C8410020CC41002088
:100D3000D0CB00104CCC001078CC0010B4CC0010FC
:100D4000E8CC001014CD00100F4B1B7803B1704796
:100D500000B583B00D4B02220D490E4809F090FEFC
:100D60000D490E4809F0A0FE0D494B7A00930B7A0D
:100D7000CA7989790B4803F04DFC034B01221A70A4
:100D800003B05DF804FB00BF914700207C130020F6
:100D9000C8310020C839002010EC001060CD0010D0
:100DA000141300206CCD0010002800F055822DE9AE
:100DB000F04FD7B00C4615460646002900F04E828B
:100DC000002A00F04F82052286490AF005FF00281C
:100DD00059D196F80580A8F13107032F00F244821B
:100DE000B3792F2B40F0428207367F4930460BF013
:100DF000DDF980B17D4930460BF0D8F9C8B17C49A6
:100E000030460BF0D3F910B37A4930460BF0CEF9E7
:100E100078B3002023E201213846FFF7D9FAA8F180
:100E200030027549204603F047FA0D232B8001203C
:100E300015E200213846FFF7CBFAA8F130026F49DE
:100E4000204603F039FA0E232B80012007E23846B2
:100E5000FFF7D6FAA8F13002694BDB5D3BB1694B75
:100E60006949204603F028FA28800120F7E1674B02
:100E7000F6E7634BDA5D6649204603F01DFA02236C
:100E80002B800120EBE10422624930460AF0A4FEE7
:100E900000284BD10436544930460BF087F980B115
:100EA000524930460BF082F9D0B1514930460BF02F
:100EB0007DF900B34F4930460BF078F938B3002084
:100EC000CDE10120FFF7B4FA534B03CB2060616002
:100ED0001A889B782281A3720A232B800120BEE10D
:100EE000FFF7A6FA4D4B07CB20606160A2600B2391
:100EF0002B800120B3E1FFF791FA494E0FCE20601D
:100F00006160A260E3600F232B800120A7E13C4ACF
:100F10009378D17801910093537812784149204613
:100F200003F0CAF905232B80012098E13E493046A1
:100F30000BF03CF908B1002091E143F2880007F082
:100F4000F3FE0746042007F0BDFF4C9001F0A4FB20
:100F5000364B1E7A9EB91B788BB1344A136952699D
:100F6000181A62EB0101012871F1000332DB4FF422
:100F70007A7200230BF084FC5490559104E0012E0A
:100F80000ED0002354935593284B93F82430013B03
:100F9000032B23D8DFE813F0420150003C013F014E
:100FA000224A9369D269181A62EB0101012871F192
:100FB000000307DB4FF47A7200230BF061FC5490BE
:100FC0005591E1E71A4A4FF0FF330BF059FC54906A
:100FD0005591D9E7002354935593D5E7154B339397
:100FE0002CE000BF24CE00102CCE001040CE00100C
:100FF00054CE00106CCE001030CE001044CE001045
:10100000C8410020F4CA00105CCE0010F8CA0010DD
:10101000F4DD001074CE00107CCE001088CE0010DD
:1010200094CE0010A4CE0010B0CE0010D01200203C
:1010300018FCFFFF98CD00108D4B3393002F00F06C
:10104000F080322F40F0F0808A4B4B938A4B93F81C
:10105000069093F807A093F808B05A7A34929A7AD7
:101060003592DA7A36921A7B37925A7B38929A7B8B
:101070003992DA7B3A921A7C3B925A7C3C9293F8F2
:1010800052203D9293F853203E9293F854203F9281
:1010900093F8552040921A7841925A7842929A7861
:1010A0004392DA7844921A7945925B794693734B6E
:1010B0001B78002B00F0BB80714B4D93714B1B785C
:1010C000002B00F0B780704B4E93002E40F0B5809F
:1010D0006E4B4F936B4B5B78002B00F0B1806A4BEB
:1010E0005093684B5A684792DA6A48921A6B499251
:1010F00093F834204A9293F8352093F8361093F8F9
:10110000370093F83860DF6B614B1B78002B00F0E1
:101110009A805D4B51935F4B1B78002B00F09680BB
:101120005D4B52934FF050435B6813F4004F40F017
:1011300090805A4B53935A4B93F800C093F801E0B8
:1011400093F80280DB783093CDF8BC80CDF8B8E01E
:10115000CDF8B4C0539B2C93529B2B93519B2A9355
:10116000299728962790269125924A9B2493549B51
:101170002293559B2393499B2093489B1F934C9B01
:101180001E934B9B1D9303231C934FF4FA631B93F5
:1011900042F210731A93339B1993479B1893509BF9
:1011A00017934F9B16934E9B15934D9B1493469B01
:1011B0001393459B1293449B1193439B1093429B23
:1011C0000F93419B0E93409B0D933F9B0C933E9B33
:1011D0000B933D9B0A933C9B09933B9B08933A9B43
:1011E0000793399B0693389B0593379B0493369B53
:1011F0000393359B0293349B0193CDF800B0534683
:101200004A462849204603F057F82880012026E066
:10121000254B339312E7254B33930FE7244B33933E
:101220000CE7244B4B9311E7234B4B930EE7234BD7
:101230004D9343E7224B4E9347E7224B4F9349E7A9
:101240001F4B50934DE71E4B519364E71E4B529337
:1012500068E71E4B53936EE700207047002057B09D
:10126000BDE8F08F0020FAE70020F8E70020F6E75D
:10127000B0CD0010D8CD00101413002010130020A2
:10128000E8CD0010D0120020F4CD001004CE0010E4
:10129000944700209147002014CE0010F4CA00109B
:1012A000C8410020B8CE0010BCCD0010C4CD001045
:1012B000A0CD0010D0CD0010E0CD0010ECCD00107E
:1012C000FCCD00100CCE00101CCE0010F8CA00108F
:1012D00038B503F069F940F6B83001F0BBF8494879
:1012E000FFF796F9192000F0D9F81923012444ECEE
:1012F00044304FF0000545EC4030FFF739F9FFF777
:1013000055F9FFF79EF9FFF7A8F9FFF711F90A233E
:1013100045EC4030FEF798FF2046FFF795F807F0C0
:1013200023FF07F041FF07F009FF07F04DFF07F02B
:1013300093FF4FF4FA6009F0A1F801F0ADF9324BD8
:10134000C3E90001314809F081F8FFF7FBF93049A2
:10135000204609F049F81CE02E4B1B78012B01D0E8
:10136000002523E0012521E003202B4B1B7883423D
:1013700038D1002D39D1FFF791F8FFF783F9274BCA
:101380001B781BB1264B1B78002B39D1012001F0B3
:1013900061F808F041FF4FF050435C6804F40044EA
:1013A000B4FA84F464090428D6D0002521462846DE
:1013B000FFF7B2FA192344EC40302DB1194B1B78DA
:1013C00013B9184B01221A70174B1B78002BCBD185
:1013D00025B9144B1B781BB90120C6E70220C4E7CE
:1013E0000420C2E7FFF730F8C3E7FFF7ADFCC2E720
:1013F000204609F0D3FD0134E4B2012CF8D9C5E749
:101400000024FAE714130020701B0020E1050010EF
:10141000C82900208F4700209347002091470020D3
:101420001013002090470020944700200C4B03EB42
:10143000800253F8203083F0400303F0C00302F52C
:10144000805CCCF80030C00000F1804000F5203016
:10145000416002F540524FF480731360704700BF43
:101460000480034010B40C4C04EB800C79B10823C9
:101470007AB10422134354F82020534003F00C03A4
:101480000CF5805CCCF800305DF8044B704700230D
:10149000EEE70022EEE700BF0480034008B54FF0FE
:1014A000000242EC440042EC40000521FFF7BEFF81
:1014B00008BD00000FB400B583B0049C074803F0DA
:1014C0007AF83CB105A90191204603F083F804485D
:1014D00003F071F8012002F017FF00BFB8D100102F
:1014E00090E50010EFF3108072B6064BD3E8CF1FE3
:1014F00001220029FAD1C3E8412F0029F6D1BFF318
:101500005F8F70473B2400200023034AC2E88F3FCF
:1015100080F31088704700BF3B24002070B505465B
:101520000C461646FFF7DEFFE208A95C04F0070C44
:10153000012303FA0CF3194205D1DBB20B43AB5480
:10154000FFF7E2FF70BD21463046FFF7B3FFF8B565
:1015500006460D4614461F46FFF7C4FF00E001345F
:10156000BC420ED84FEAD40C16F80C1004F0070356
:1015700001229A401142F2D1D2B20A4306F80C205D
:1015800001E04FF0FF34FFF7BFFF002C01DB2046E6
:10159000F8BD002DFBD00698FFF78CFF054A1078A8
:1015A000431CDBB21370172B02D9134610221A709A
:1015B000704700BF7E13002000B583B00146054B85
:1015C00000931F2318220448FFF7C1FF03B05DF802
:1015D00004FB00BFC8D10010582900204FF0E022C2
:1015E000936843F00053936070470000002305E0C8
:1015F000044A1A440021C2E88F1F01331F2BF7D978
:10160000704700BF30240020064B9B68103043F821
:101610002010BFF35F8F00230349C1E88F3F82F39F
:101620001088704700ED00E0392400200048704722
:1016300000E400E008B5FFF7F9FF002304E04FF0F5
:10164000803240F8042B01330C2BF8D962B608BD68
:1016500008B50388DA0A1C2A06D15B050BD45B1592
:10166000023300EB430008BD064B074A4FF48E716E
:10167000064802F069FE03F5FF1303F5FF531F331D
:10168000EDE700BFE4D10010CC0B0110FCD100103D
:1016900008B5091A01F2FC7240F6FE739A4208D8A6
:1016A000081F11F0010F04D1C0F34A0040F460405C
:1016B00008BD034B034A4FF48771034802F044FE10
:1016C00044D20010C00B0110FCD1001008B5091A5B
:1016D00004394B08090B0AD1C1F30A0141F47041E6
:1016E00001806FEA43536FEA5353438008BD034BB5
:1016F000034A4FF48B71034802F026FE74D20010A7
:101700009C0B0110FCD100104209064B53F822300B
:1017100000F01F000122824003EA0200003818BFD7
:101720000120704700E100E03AB1064B00F1600291
:1017300043F8221043F8201070472030014B43F843
:101740002010704700E100E008B50A4600F01F03D2
:10175000012199404009FFF7E7FF08BD00F01F0293
:101760004009012393404030014A42F8203070473D
:1017700000E100E0024B9B68103053F820007047F6
:1017800000ED00E008B5FFF7F5FF034BC01A2F2866
:101790008CBF0020012008BD8013002070B50546D5
:1017A0000C46EFF3108672B60F4BD3E8CF1F012221
:1017B0000029FAD1C3E8412F0029F6D1BFF35F8F8A
:1017C000FFF7D8FF094B984201D0A04205D132461D
:1017D00021462846FFF718FF70BD054B054AED214D
:1017E000054802F0B1FD00BF3924002011010010AE
:1017F00084D20010F40B0110FCD100102DE9F04F41
:1018000087B000911546EFF3108A72B67C4BD3E88F
:10181000CF1F01220029FAD1C3E8412F0029F6D1B8
:10182000BFF35F8F774B93F90040002C44DB804679
:1018300004EB4407744B03EB870797F90610714AD2
:101840001170724A926800F1100152F82190A9EBD0
:1018500003022F2A3ED96E4B994534D14FF42143D0
:10186000ADF80C304FEA440904EB4400664E06EB39
:10187000800068490230FFF70BFFADF80E004BF611
:101880000153ADF81030FF238DF812308DF813504E
:10189000009B0593A14406EB890306AA12E9070001
:1018A00083E8070047F00109524649464046FFF7E2
:1018B000ABFE07B0BDE8F08F574B584A4FF4BE71EE
:1018C000574802F041FD574B544A40F283115448A7
:1018D00002F03AFD29F0010BABEB0303524AA2FBE5
:1018E0000312D20802EB4202B3EB820F0FD15B4628
:1018F0000026DA79AA4212D993F90620002A0DDBD4
:1019000002EB42021E46404B03EB8203F1E7474BDA
:10191000424A4FF4CA71424802F016FD1E46A6B371
:1019200044F60103ADF80C304FF48F43ADF80E30A0
:1019300096F906B0BBF1000F1ADA4BF60150ADF87C
:1019400010008DF812B08DF81350009B05933946A6
:10195000301DFFF79DFEB080B47104EB44042A4BA8
:1019600003EB840306AA12E9070083E807009BE75C
:10197000301DFFF76DFE014604EB4402224B03EBE2
:101980008203181DFFF784FED9E74FF42143ADF819
:101990000C306300019304EB4406DFF86C9009EB14
:1019A00086061C49B01CFFF773FEADF80E005946C1
:1019B000301DFFF76DFEADF810004AF6AA235A4617
:1019C0004946521A524153431B0D8DF812308DF87F
:1019D0001350009A0592019B234409EB830906AB3F
:1019E00013E9070089E8070044F60103ABF800306B
:1019F0004FF48F43ABF8023047F0010954E700BFC2
:101A000039240020984700208013002000ED00E0DA
:101A100011010010B0130020BCD20010DC0B01102B
:101A2000FCD10010E4D20010ABAAAAAA0CD300107B
:101A30002DE9F04706460D46EFF3108872B6504B7D
:101A4000D3E8CF1F01220029FAD1C3E8412F002992
:101A5000F6D1BFF35F8F4B4B9B6800F1100A53F830
:101A60002A70494B9F4207D0AF4200F087803C4626
:101A7000464BFB1A2F2B06D9424639463046FFF714
:101A8000C3FDBDE8F087FFF73FFE814600213046E9
:101A9000FFF75AFEBFF35F8FEFF30580C0B208B1C6
:101AA000824510D124F001040021A268954212D091
:101AB00094F90630002B0DDB03EB43032146334C36
:101AC00004EB8304F1E7324B324A40F20221324800
:101AD00002F03AFC2146954249D194F90650002D76
:101AE0002BDB05EB4502294B03EB82039A68A260CE
:101AF000DA79E27193F90630A371002B10DA4BF614
:101B00000150A08005EB4502204B03EB8203234AE2
:101B100011789971157049463046FFF715FEABE70D
:101B200005EB4503194800EB83000430FFF790FDF7
:101B30000146201DFFF7ACFDE3E798B981B1FF2313
:101B40008B714BF601538B80144A1378A3714AF6BC
:101B5000AA230E49641A644163431B0D1370DAE72C
:101B6000094FF1E70E49201DFFF7B0FDD3E70D4BFC
:101B7000084A4FF41171084802F0E6FB024F7BE778
:101B80003924002000ED00E0110100108013002036
:101B900090D30010AC0B0110FCD10010984700202E
:101BA000BA130020FCCD001038B540F00104324BD0
:101BB000E31A2F2B31D8EFF30581C9B2002933D0B6
:101BC000EFF3108E72B62D4BD3E8CF5F0122002DBC
:101BD000FAD1C3E8452F002DF6D1BFF35F8F4AF647
:101BE000AA230246244D521B524153431B0D4FFA68
:101BF00083FC234B9B6853F82130A3421BD0002366
:101C0000032B32D803EB43011B4A02EB810292F90A
:101C10000620624520D00133F2E71A4B1A4A40F2FF
:101C20007F211A4802F090FB194B174A40F282219B
:101C3000164802F089FB124B9B68164A43F8212094
:101C4000154B1A78827183F800C000230B4AC2E852
:101C50008F3F8EF3108838BD074A02EB8101FF24C5
:101C60008C714BF601538B80EAE70C4B064A40F22D
:101C70009321064802F068FB8013002039240020DD
:101C800000ED00E0C4D30010800B0110FCD1001067
:101C9000ECD30010110100109847002008E8001054
:101CA00000B583B00146074B009305230022064888
:101CB000FFF74DFC002801DBC0F1330003B05DF8F5
:101CC00004FB00BFF8D300109D470020014B0B44DC
:101CD000036070473024002010B50446FFF75EFC17
:101CE00001462046FFF7F2FFFF232371BFF35F8F0A
:101CF00010BD10B50446FFF751FC01462046FFF722
:101D0000E5FFFF23237100236371BFF35F8F10BDD5
:101D100010B50D4C09E00D4B0D4A1A210D4802F08B
:101D200013FB2046FFF7D8FF08340B4B9C4209D227
:101D30002368002BF5D0012BEDD12046FFF7D9FF0A
:101D40000834F2E710BD00BFD819002014D40010E9
:101D5000340C011034D40010E0190020024B0B4465
:101D60000360BFF35F8F70473024002010B5044636
:101D70000120FFF721FC01462046FFF7EFFF10BDD1
:101D80000246EFF30583DBB2103B990804D0034809
:101D900003F00303136070470148F9E700800B402C
:101DA00000000B4010B4846AA2EB040C0B1D50F829
:101DB00023301B1B9C4504D3046A01238B401C4227
:101DC00002D1043140F821205DF8044B704741EA0C
:101DD000004070470D4B1A68EFF3108172B6D2E8DD
:101DE000CFCF0120BCF1000FF9D1C2E84C0FBCF1FC
:101DF000000FF4D1BFF35F8F1A680023C2E88F3F52
:101E000081F3108840BF0020002170474C4600201D
:101E10002DE9F04F85B003A8FFF7B2FF954B98422C
:101E200014BF00230123039901EB8303924A52F864
:101E300023402378994206D1054601228A4000F5C5
:101E400041535A602CE18D4B8D4A92218D4802F00E
:101E50007BFAD4F8149006EB46074FEAC70A09EB61
:101E6000C707D7F808B0D7F80C80284600F0EAFB7F
:101E7000B0EB0B0061EB0803002BC0F21A81B8F144
:101E8000000F64DB3B691A4600937F4B9A4230D0C7
:101E9000798889B2B4F90800FFF799FF7969009B46
:101EA0009847009001910099019A51EA02034ED09F
:101EB0001346002A29DABBEB010268EB0308BA607B
:101EC000C7F80C8039F90A70002FC0F2F280D4F8FC
:101ED00014E007EB47030EEBC3039968DB68511A64
:101EE00068EB0303002BC0F2E480A4462CF8087FC3
:101EF00017E07A69136900921046984738B3009A40
:101F00001368009353680193CDE7284600F09AFBCD
:101F1000009B1A18019B43EB0108D0E79C463EF951
:101F20000B70002F0EDBBCF9003003EB43034FEACC
:101F3000C30B0EEBC3039868D968101A68EB010154
:101F40000029EBDA29F80A70ACF80060B1E039F941
:101F50000A3023812369EFF3108272B6D3E8CF0FE2
:101F600001210028FAD1C3E8401F0028F6D1BFF3B1
:101F70005F8FB4F9023029F80A30668021690023A6
:101F8000C1E88F3F82F3108893E02369EFF310825A
:101F900072B6D3E8CF0F01210028FAD1C3E8401F61
:101FA0000028F6D1BFF35F8FB4F804800FFA88F8E9
:101FB0004FF6FF73A38021690023C1E88F3F82F3AE
:101FC00010881AE01F4630F90A60002E0FDBB7F9BF
:101FD000003003EB43034FEAC30A00EBC3039968E5
:101FE000DA68BCEB01016EEB0202002AEADAA7F81C
:101FF000008030F9098020F80960B8F1000F5DDB3E
:10200000606908EB48034FEAC30900EBC303D3F848
:1020100008C0D3F80CE004F10807B4F90860D4E76D
:102020000023A37104F1080CB4F9083010E04FF05C
:10203000FF384FF0FF39C0E90289B4F9080098422F
:1020400005D0ACF80020B4F90800C853238113462A
:10205000B3F1FF3F35D0616903EB4302D70001EBD9
:10206000C20031F93220468816F4004FDFD1844691
:10207000EDE700BF00800B4024460020C8D40010CC
:10208000600C0110F4D40010111E0010284600F05E
:10209000D9FA3F1A66EB0106012F76F1000628DA1D
:1020A000039A01239340EB63B4F90860002EBFF656
:1020B000D0AEA38813F4004F3FF467AFA379002B91
:1020C000AED1B4F90830002B13DB626903EB430394
:1020D00002EBC3039F68DE68B6F1FF3F08BFB7F1AC
:1020E000FF3FD3D03A46334603992846FFF75AFEBE
:1020F000CCE740BF05B0BDE8F08F00BFF8B504469F
:102100000D4611460A4B984210D000262E44012756
:1021100007FA05F525623046FFF740FB39463046A1
:10212000FFF712FB04F501542560F8BD0426EDE726
:1021300000800B40F8B504460E4617461D46C160A8
:10214000FFF72CFA164B034423612770ABB263816F
:102150004FF05042127862704FF6FF722281A280D7
:10216000013B63804FF0000C08E00CF1FF300CEBFA
:102170004C0E636923F83E000CF1010CAC45F4D31E
:10218000084B9E4214BF0023012307EB8303064A3A
:1021900042F82340054A39463046FFF7AFFFF8BD05
:1021A0003024002000800B4024460020111E001027
:1021B00008B5054B1B690BB1034808BD034B044A26
:1021C0006521044802F0C0F8C813002034D500107F
:1021D000480C0110F4D40010F8B504469E4600697E
:1021E000EFF3108172B6D0E8CF6F0125002EFAD13F
:1021F000C0E8465F002EF6D1BFF35F8FB4F90250FE
:10220000666905EB4500C70006EBC000002D03DB47
:1022100036F907C0A4F802C04FF0000C2369C3E8E8
:102220008FCF81F31088654533DB069901610799EB
:1022300041618260C0F80CE0418889B20131C1F38C
:102240000E0101B9012141802846FFF7C0FD236935
:10225000EFF3108272B6D3E8CFCF0121BCF1000FAB
:10226000F9D1C3E84C1FBCF1000FF4D1BFF35F8F6D
:10227000A388F353A58021690023C1E88F3F82F32F
:102280001088E368217801228A4003F501535A60DF
:10229000F8BD4FF0FF30FBE770B582B0064615463B
:1022A0001C469DF8203033B900F0F6F9854264EB06
:1022B000010100290ADB079B0193069B00932A4634
:1022C00023463046FFF788FF02B070BD0020FBE7D1
:1022D000F0B585B005460C4616461F46FFF768FF69
:1022E0009DF828300293019700962A462346FFF76F
:1022F000D3FF05B0F0BD03464089B0EB214F31DD7F
:1023000010B50A14586902EB420200EBC2001A69C8
:10231000EFF3108C72B6D2E8CF4F5FF0010E002CB5
:10232000F9D1C2E844EF002CF5D1BFF35F8F4288AA
:1023300092B289B28A420FD0002019690022C1E806
:102340008F2F8CF3108830B1DA681B780121994007
:1023500002F50153596010BD42F400424280012051
:102360009871EAE70020704710B50446FFF720FF98
:102370002146FFF7C0FF10BD40787047F0B583B02D
:10238000EFF30583DBB2CBB904460D46861F41F15E
:10239000FF37B04271EB070301D20026374600F049
:1023A0007BF9301A67EB0103012873F1000308DAA7
:1023B0002046294600F082F903B0F0BD1848FFF727
:1023C00079F800230093174A30463946FFF780FF1B
:1023D000002819DAECE7144B1A68EFF3108172B693
:1023E000D2E8CFCF0120BCF1000FF9D1C2E84C0FE9
:1023F000BCF1000FF4D1BFF35F8F1A680023C2E86D
:102400008F3F81F3108820BF084B5B6A9F42E2D860
:10241000064A926AB242CBD29F42C9D1DBE700BFE3
:1024200058D50010D51D00104C46002000000B4070
:1024300038B504460D4600F02FF9201845EB010190
:10244000002902DBFFF79AFF38BD4FF0FF306FF035
:102450000041F7E708B5C30E4101091A63F1000313
:102460009B0043EA91738900091843F10003DB00E4
:10247000C80043EA5171FFF7DBFF08BDF0B583B038
:1024800005460C46EFF30583DBB293B1384B5B6A2C
:102490008B4209D3364A926A824208D28B4201D0DB
:1024A000012002E0002000E0002003B0F0BD012088
:1024B000FBE7FFF77DFEC7680678384600F0C2F8F4
:1024C0002A1A64EB0101043657F826301B1A9A4287
:1024D00071F1000112DB20BF254B5B6A9C4209D8D9
:1024E000234A926AAA4207D29C4201D00120DCE72B
:1024F0000020DAE70020D8E70120D6E70023009388
:102500001C4A28462146FFF7E3FE002818DD184B39
:102510005B6A9C4205D8164A926AAA4202D29C4241
:1025200000D120BFFFF720FF114B5B6A9C421BD8F4
:102530000F4A926AAA4219D29C4213D00120B4E7F2
:102540000B4B5B6A9C4209D8094A926AAA4207D29D
:102550009C4201D00120A8E70020A6E70020A4E7C4
:102560000120A2E70020A0E700209EE701209CE7D1
:1025700000000B40D51D0010F0B585B0064614468E
:102580000C9D54EA030201D101240023AE600A9A93
:102590002A612C606B600B9A6A611F46002B15DB69
:1025A00000F07AF8221847EB0103002B12DB01211F
:1025B000029101950A4900913046FFF76DFEE860EF
:1025C0000028D4BF0020012005B0F0BD644263EBB9
:1025D0004307E5E74FF0FF326FF00043E7E700BF46
:1025E000111E00100048704700000B4010B50A4B48
:1025F0001B6923B10A210948FFF768FB10BDFFF7EB
:10260000F1FF0446032100F00BF8102303222146BA
:102610000148FFF78FFDEDE7C81300204C4600206E
:1026200010B5054A054C064BA04214BF1846581C6D
:10263000FEF774FF10BD00BFA8D5001000800B404E
:102640005C2900200246436A906A1946536A9942FF
:10265000FAD17047416A00E0416A9942FCD300E038
:10266000416A994202D1816A9142F9D3704770B5AB
:10267000064614461D46FFF7E5FF021941EB050328
:10268000824273EB010102D24FF0FF321346304613
:10269000FFF7E0FF70BD000008B50248FFF7D2FF6A
:1026A00008BD00BF00000B4008B502460B460248BB
:1026B000FFF7DDFF08BD00BF00000B4008B5024674
:1026C0000B460248FFF7C6FF08BD00BF00000B40E5
:1026D000074B98420AD01A2301229A40054B1A60F0
:1026E000054B9B6832EA0303FAD170471B23F3E7DB
:1026F00000800740003002400000024038B5046B03
:1027000014F0010F01D1204638BD00F5405340F2CE
:1027100001321A63436A856A05EB8315AD02062010
:1027200000F0EAF8044BA3FB0030C00AB5FBF0F060
:102730000021FFF7B9FFE6E7757B2B8F70B50546E3
:102740000C461646FFF7DAFFEB6A5C40344005F5AD
:102750008153DC60286370BD70B505460C460620C9
:1027600000F0CAF8C300B3FBF4F30133DC0907D06F
:102770004FF6FE72944214D82646C3F3450400E097
:1027800001266E62AC62002211462846FFF7D6FF92
:10279000062000F0B1F8800004EB8614B0FBF4F0E2
:1027A00070BD00244FF6FF76EBE7000049B10A2226
:1027B000054B984214BF00200120044B23F8102041
:1027C00070474FF48072F3E70080074070460020A6
:1027D00038B504460D46062000F08EF8F8B1114BCE
:1027E0009C421DD01A22012393400F4A13602046B9
:1027F000FFF76EFF00212046FFF7D8FF294620464D
:10280000FFF7AAFFE36A83F0700303F07E0304F589
:102810008152D36040F2013323630323A36438BDA4
:102820001B22E0E7008007400020024070B51646FA
:10283000049D00EB400C4FEA8C0C0CF1804C0CF525
:10284000803CDCF80420AA4201D2CCF80450A0F16C
:10285000040E5FFA8EFEBEF1010F28D90CF540522E
:102860004FF4006414601E4A52F8202042B11C4C00
:102870006469B4FBF2F4013404EB4404033CFDD27C
:10288000DCF8002082EA461202F0E0020CF58054E7
:102890002260BEF1010F16D90CF500524FF4006111
:1028A0001160CCF804500E4A42F8203070BD012966
:1028B000D4D10CF5405203241460DCF8082012F047
:1028C000010FFAD0DCE7DCF800204A4002F00302F6
:1028D0002260DCF8084001228A401442F9D0DBE78C
:1028E0006029002010B582B04FF480340094FFF7C7
:1028F0009DFF02B010BD0000014B53F8200070474F
:102900006029002070B5049C344DB5FBF1FC344DBA
:102910001544344EB54237D8B2FBFCF5A5F1100E84
:10292000BEF5987F36D803F1FF3EBEF1060F37D8CB
:1029300004F1FF3EBEF1060F32D8BCEB121F35D8B2
:10294000240344EA03440368002B35DB264B9842FA
:1029500042D00E2301229A40244B1A6003F5805383
:102960001A60234B9B6832EA0303FAD10160856049
:1029700000F540520432212313600368002BFCDA77
:10298000C4600823136070BD1A4B1B4A11211B48F9
:1029900001F0DAFC1A4B184A1921184801F0D4FC4E
:1029A000184B154A1C21154801F0CEFC164B124A53
:1029B0002321124801F0C8FC036803F03F038B4257
:1029C000C4D18368C3F30B03AB42BFD1C36803F424
:1029D000EE23A342BAD1D6E70F23BBE7001BB70013
:1029E00080E84BD380F8A9320080054000200240E7
:1029F00000000240CCD50010780C01101CD600104D
:102A000064D6001080D60010CCD60010024B1A6895
:102A1000024B5A60704700BFE845002000800D401F
:102A200008B5164B4FF080421A60A3F54123144AB3
:102A30009A6051B103F540234FF0E0621A6048B943
:102A4000104B4FF000421A6008BD0C4B4FF0E06293
:102A50001A60F4E74FF47A7303FB00F00A4B186036
:102A6000B0F1807F02D36FF07F421A60FFF7CEFF94
:102A7000044B4FF080421A60E6E700BF00B00D4003
:102A8000F3FFFF0100A00D40E845002010B50C4BFE
:102A90004FF080441C6070B140F0010309480A4CBB
:102AA000C4610A4C5C4004624162836200211046AA
:102AB000FFF7B6FF10BD034B0021D961F6E700BF59
:102AC00000B00D4000800D40D3C007B02D3FF84F3F
:102AD000054A00EB400302EB8303596000EB400022
:102AE0008000012313507047008010402DE9F04111
:102AF00005460E46174698460023DB8A002242E828
:102B000000F212F4800F0BD1102144F252209847AA
:102B1000044643463A4631462846A047BDE8F08180
:102B2000042144F2522098470446F2E708B50023F6
:102B3000DB8A002242E800F212F4800F02D1102159
:102B4000984708BD04219847FBE708B5031E04DB3E
:102B500041F020003AB141F030010A460A214FF419
:102B60008170FFF7C3FF0146F7E70000034BD3F87E
:102B70002838002BFAD0BFF35F8F704700000E405B
:102B8000002207E0054B13449B00BFF35F8F002139
:102B900019600132072AF5D9704700BF038203107C
:102BA00008B5FFF7EDFF08BD074B4FF42A621A6026
:102BB0004FF48D72DA6003F50053044A1A60024B39
:102BC0005B68002BFBDA70470080044000B0FA001D
:102BD00010B5044602E054F8043B9847014B9C4270
:102BE000F9D310BD00C900107047000008B50248B5
:102BF000FFF7EEFF08BD00BFC0C80010064B074A34
:102C00001A6003F58053064A1A60064B9A68044B13
:102C10009343FAD1704700BF002002407F3BEFEFA3
:102C2000F6FFF30300000240054BDB6CB3F5004FE9
:102C300000D07047034B4FF48022DA64F9E700BFFD
:102C400000001150002011504FF0E022D2F8881DF2
:102C5000034B0B43C2F8883D10EE3004704700BFB1
:102C600003033000054B6FF060421A60044B9B6811
:102C7000DB4333F06043F9D1704700BF00300240BE
:102C80000000024008B545F25320FFF74FFF03460E
:102C90000420984708BD08B545F25320FFF746FFCA
:102CA00003460120984708BD08B5FEF79FFC08BD04
:102CB00010B50C490C4A521A92101446442A28BFE7
:102CC00044229200094809F0ADFB04E0084A074B92
:102CD00043F824200134432CF8D9044A054B9A6068
:102CE00010BD00BF00000010100100100000002007
:102CF0001101001000ED00E038B50420FFF7FCFDE5
:102D0000064BA3FB0035AD0C002404E02946E0B2DD
:102D1000FFF7DEFE0134052CF8DD38BD83DE1B43F2
:102D200030B583B0264B0022C3F88420FFF73CFF68
:102D3000244B0122DA63224B5B6C012BFBD1214B2C
:102D400003221A631E4B9B6B012BFBD102240094C0
:102D500005231D4A01211D48FFF7D4FD05250095D7
:102D60002B461B4A01211B48FFF7CCFD1A4B0022C2
:102D700021460420FFF7B6FD184C2346002201210E
:102D80002846FFF7AFFD164D2B46002211460820BE
:102D9000FFF7A8FD2B46002211460920FFF7A2FDF0
:102DA0002346002211460620FFF79CFD2346002201
:102DB00011460720FFF796FDFFF79EFF03B030BDD9
:102DC0000000014000300140002F6859000005401C
:102DD000008C864700800540001BB70080D1F008BA
:102DE000006CDC0286B003B451FC0804CDE902019A
:102DF00051FC0904CDE9040151EC0A04CDE90601B6
:102E000003BCF047BDE800504EEC00C4BDE80050E4
:102E10004EEC01C4BDE800504EEC02C400BD000001
:102E200000B5FFF7DFFF02E010FE30F4F8D441EC0C
:102E3000100443EC112400EE010410EE010480EEB6
:102E4000200451EC1004704700B5FFF7CBFF02E0FF
:102E500010FE30F4F8D441EC100443EC112400EEE1
:102E6000010410EE210480EE200451EC3004704780
:102E700000B5FFF7B7FF02E010FE30F4F8D410B54C
:102E800041EC100443EC112451EC040453EC0524F0
:102E9000A0FB024C5FF0000EE0FB03CEE1FB02CE94
:102EA0004CEC20440024E1FB03E444EC30E480EEED
:102EB000200451EC5004BDE81040704700B5FFF706
:102EC00091FF02E010FE30F4F8D441EC100443EC22
:102ED000112451EC2104A0FB01126FEA820252FB83
:102EE000100052FB12F252FB1000A0EBD07C53EC0E
:102EF00004245CFB13F153EC1524A1FB022001FB1D
:102F0000030053EC4424A2EB000050FB1CF24FEAF8
:102F1000111312EB017043EBE27140EA515020EAC9
:102F2000915020F0070053EC7524A0FB023C53ECB9
:102F3000752400FB03CC01FB02CC53EC0424ACEB66
:102F4000824C40EA5C70A0F1010041EC400480EE4C
:102F5000200451EC7004704700B5FFF743FF02E016
:102F600010FE30F4F8D440EC700400EE010410EED2
:102F7000210480EE200451EC3004704700B5FFF7C7
:102F800031FF02E010FE30F4F8D440EC600400EEB3
:102F9000010410EE210480EE200451EC300470474F
:102FA00000B5FFF71FFF02E010FE30F4F8D441EC4B
:102FB000800400EE010410EE010480EE400410EEE7
:102FC0001304704700B5FFF70DFF02E010FE30F468
:102FD000F8D441EC800400EE010410EE010480EE10
:102FE000400410EE3304704700B5FFF7FBFE02E02B
:102FF00010FE30F4F8D441EC100443EC112400EE40
:10300000010410EE3004C0F30070704700B5FFF704
:10301000E9FE02E010FE30F4F8D443EC102441EC59
:10302000110400EE010410EE30F48CBF01200020EA
:10303000704700BF00B5FFF7D5FE02E010FE30F488
:10304000F8D443EC102441EC110400EE010410EE1E
:1030500030F42CBF01200020704700BF00B5FFF7FF
:10306000C1FE02E010FE30F4F8D441EC100443EC51
:10307000112400EE010410EE30F42CBF01200020DA
:10308000704700BF00B5FFF7ADFE02E010FE30F460
:10309000F8D441EC100443EC112400EE010410EECE
:1030A00030F48CBF01200020704700BF08B528B164
:1030B00003460B44034A934200D808BD0248FEF77A
:1030C000F9F900BF00000820E8D6001038B5054621
:1030D00008F0AEF904462946FFF7E8FF204638BD60
:1030E0009A4200D288547047704720B108B50A68E8
:1030F0004968904708BD70470146002008E000EB92
:103100008000531C0B60137803EB4003A3F13000E5
:103110000A681378303BDBB2092BF0D970472DE9F0
:10312000F04F83B005460E4693461F46DDF830A0AB
:103130000D9CDDF838900F9B13F0030F19D1A046BA
:10314000019208E002F1010B3B4631462020A847DE
:1031500008F101085A46C845F4D3DDF804B008E088
:10316000013C02F101083B4631461AF80400A84729
:103170004246002CF4D10F9B13F0020F09D11046E8
:1031800003B0BDE8F08F541C3B4631462020A847D1
:103190002246A2EB0B034B45F5D3F0E72DE9F043B4
:1031A00085B099460C9D0D9C9DF83880DDF840E077
:1031B000119F129E16F0020F21D17FB116F0010F60
:1031C0000CD0B8F1000F02D116F00C0F06D0013F61
:1031D00004E04FF0300C05F804C00134744501D20E
:1031E0001F2CF6D916F0010F09D0BC4207D21F2CB4
:1031F00005D84FF0300C05F804C00134F2E716F0A2
:10320000100F14D016F4806F04D11CB1744522D075
:10321000BC4220D00F9B102B33D00F9B022B3DD0F4
:103220001F2C0ED84FF0300C05F804C001341F2CB1
:1032300007D8B8F1000F39D04FF02D0C05F804C0B5
:10324000013403960297019400954B46FFF767FF00
:1032500005B0BDE8F083B4F1010C1DD00F9B102B1D
:103260000ED064460F9B102BD7D116F0200FD4D070
:103270001F2CD2D84FF0580C05F804C00134CFE70A
:10328000023C16F0200FEDD11F2CEBD84FF0780C3C
:1032900005F804C00134C3E76446BBE71F2CD0D84F
:1032A0004FF0620C05F804C00134B9E716F0040FC2
:1032B00005D04FF02B0C05F804C00134C1E716F01F
:1032C000080FBED04FF0200C05F804C00134B8E759
:1032D000F0B591B0169C189D1B9E0CB926F01006F7
:1032E00016F4806E1DD064B34FF0000E19E016F096
:1032F000200F24D04127BC445FFA8CFCACF10A0CAF
:103300005FFA8CFC0EF101070EF1400EEE440EF850
:1033100020CCB4FBF5FCAC4214D31F2F12D8BE4610
:103320006446B4FBF5FC05FB1C4C5FFA8CFCBCF15D
:10333000090FDCD80CF1300C5FFA8CFCE2E7612756
:10334000D9E7274606961A9C0594199C0494039580
:103350009DF85C400294019708AC0094FFF71EFFB3
:1033600011B0F0BD2DE9F04F95B009900A910B9284
:103370009846DDF878B0DDF87C90229D239F269E4C
:103380005BEA090201D126F0100616F4806424D00D
:103390005BEA09022FD000241FE016F0200F28D08E
:1033A00041231344DBB20A3BDBB204F1010A04F10E
:1033B00050020DEB020404F8203C2A463B465846D6
:1033C000494609F055FAAB4579EB070915D3BAF12F
:1033D0001F0F12D85446834689462A463B46584614
:1033E000494609F045FAD2B2092AD6D83032D3B2CA
:1033F000DBE76123D5E74FF0000A0696259B05938E
:10340000249B049303959DF880300293CDF804A08B
:103410000CAB009343460B9A0A990998FFF7BEFE3E
:1034200015B0BDE8F08F00002DE9F04F93B00446D1
:103430000D4617461E46DDE91CAB52465B4650461C
:103440005946FFF7D5FD002840F0F3804FF0FF32DA
:10345000AD4B50465946FFF719FE002840F0E98071
:103460004FF0FF326FF4801350465946FFF7D2FDFC
:10347000002840F0DE800022002350465946FFF726
:10348000C9FD002840F0E680CDE906AB209B13F48F
:1034900080630F9301D106231E93DDE906231046B6
:1034A0001946CDE90A01079B52EA030100F0DC80CE
:1034B000C3F30A50C3F31303904643F07F5949F412
:1034C0004019A0F2FF30FFF74BFD7DA3D3E90023A5
:1034D000FFF7D2FC7CA3D3E90023FFF7A5FCCDE9DD
:1034E00008010022894B40464946FFF7B1FC78A30A
:1034F000D3E90023FFF7C0FC02460B46DDE90801D3
:10350000FFF792FCFFF750FD0890FFF729FD80467A
:10351000894671A3D3E90023FFF7AEFC00227C4B60
:10352000FFF782FCFFF740FD0A906DA3D3E900236B
:1035300040464946FFF7A0FC804689460A98FFF7B7
:103540000FFD69A3D3E90023FFF796FC02460B4663
:1035500040464946FFF77CFC8046894602460B46BA
:10356000FFF78AFCCDE90C010A9B03F2FF3300212F
:103570000022CDE90A121B050B9300230A93424651
:103580004B4640464946FFF74FFCCDE91001424605
:103590004B4600204FF08041FFF75AFC8046894699
:1035A00000225C4BDDE90C01FFF78CFC00225A4B3A
:1035B000FFF73AFC02460B46DDE90C01FFF782FCFF
:1035C0000022564BFFF730FC02460B46DDE90C01AA
:1035D000FFF778FC02460B4640464946FFF724FCBD
:1035E00002460B46DDE91001FFF76CFC00224C4B54
:1035F000FFF71AFCDDE90A23FFF73EFC8046894607
:10360000CDE90A89DDE90623FFF740FD50B1089BAB
:10361000013B08930022404B40464946FFF752FCCD
:10362000CDE90A01089B6333C62B46D84FF0040846
:103630001EE0209B04931F9B03931E9B0293CDE9E6
:1036400000AB33463A462946204600F0FDF813B059
:10365000BDE8F08F9FED267B8DED067BCDF818A0A1
:103660000BF10043079311E7002308934FF0040880
:10367000209B13F4006F5FD0DDE90A1213460B4361
:1036800013D01DA3D3E90023DDE90601FFF7EAFC0F
:10369000002800F0B4801AA3D3E90023DDE9060175
:1036A000FFF7B8FC002800F0AA801E9A089B9A42F7
:1036B00038DDD31A013B1E9336E04FF00508D7E7FB
:1036C000FB799F501344D33FB3C8608B288AC63F11
:1036D00061436F63A787D23F71A379094F930A4073
:1036E0001655B5BBB16B0240EF39FAFE422EE63FEC
:1036F00000000000000000002D431CEBE2361A3FE2
:103700000000000080842E41FFFFEF7F0000F83FA3
:103710000000E03F00002C40000024400000184062
:103720000000F03F00231E93209B43F4806320930E
:103730004FF00008CDF820801F9B984569D2A3EB7D
:103740000809209B13F002030C9304D0B8F1000F7A
:1037500001D04FF00009089B3BB1DDE90A23DDE908
:103760000601FFF7AFFBCDE906010022002350461A
:103770005946FFF74FFC00284ED1209B23F40063ED
:103780000493CDF80C901E9B02939DED067B8DED6E
:10379000007B33463A462946204600F055F8B8F1FA
:1037A000000F3FF454AF209B13F0200F3CD04FF09C
:1037B000450C00F101093346024629466046A04700
:1037C000089981EAE172A2EBE1720523059308F101
:1037D000FF330493002303930A230293CB0F019337
:1037E000009233464A4629462046FFF771FD0C9B5E
:1037F000002B3FF42CAF0246DDF87C901EE01E9BB0
:10380000002B99D00F9B002B96D01E9B013B1E9343
:1038100092E74FF0000994E7DDE90601024601F165
:103820000043CDE90623A8E74FF0650CC1E702F19C
:103830000108334629462020A0474246D31B4B456A
:10384000F5D3104603E700BF2DE9F04F2DED028BB5
:1038500095B007900A9192469B46DDE92089229D0A
:1038600042464B4640464946FFF7C2FB002835D149
:103870004FF0FF326FF4801340464946FFF7CAFB12
:1038800000283AD14FF0FF32B14B40464946FFF78E
:10389000FDFB002840D1AAA3D3E9002340464946B6
:1038A000FFF7F4FB00284DD1A7A3D3E9002340463E
:1038B0004946FFF7AFFB002844D1002200234046D1
:1038C0004946FFF7A7FB00284AD100230B93249B0E
:1038D00013F4806F00F0B580002454E0249B039320
:1038E000239B0293032301939A4B00935B4652461A
:1038F0000A990798FFF713FC1BE1249B0393239B72
:10390000029304230193944B00935B4652460A9919
:103910000798FFF704FC0CE1249B13F0040F0ED072
:103920008E4B0422249903912399029101920093D2
:103930005B4652460A990798FFF7F1FBF9E0884B7E
:103940000322EFE7249B0493239B03930295CDE985
:1039500000895B4652460A990798FFF765FDE8E043
:1039600042464B4600200021FFF772FA8046894606
:1039700001230B93ABE704F150036B44302203F8AF
:10398000202C013D01341F2C01D8092DF3D84046CD
:103990004946FFF709FB0646FFF7E2FA02460B46E7
:1039A00040464946FFF754FA6E4B03EBC50393EDCF
:1039B000008B53EC182BFFF75FFA02460B46CDE95C
:1039C0000823FFF703FB0746FFF7DCFA02460B4626
:1039D000DDE90801FFF73CFA02460B46CDE9082372
:1039E0000022614BFFF752FB68B301373846FFF7FF
:1039F000C9FA02460B4651EC180BFFF71FFB08B142
:103A0000013600276DBB3046FFF7AAFA02460B4687
:103A100040464946FFF71CFA074688460022524BAB
:103A2000FFF7F8FA00284CD100224F4B38464146A8
:103A3000FFF72CFB002844D116F0010F41D00136CE
:103A40003FE0062548E70022474BDDE90801FFF784
:103A5000E1FA0028D6D117B117F0010FD2D0013703
:103A6000D0E71F2C17D8013D404BA3FB0723DB08F1
:103A7000194603EB8303A7EB4303621C303304F1C5
:103A800050000DEB000404F8203C092F02D90F462A
:103A90001446E6E714461F2C0AD86B1E45B104F104
:103AA00050026A44302102F8201C1D460134F2E71E
:103AB0001F2C06D804F150036B442E2203F8202C4F
:103AC00001341F2C17D82A4A82FB0632F317C3EBA6
:103AD000A2031A4603EB8303A6EB4303611C3033B6
:103AE00004F150000DEB000404F8203C16460AB126
:103AF0000C46E6E70C46249B03F00303012B39D068
:103B00001F2C09D80B9B002B51D004F150036B44A0
:103B10002D2203F8202C0134249B0393239B029332
:103B200001940CAB00935B4652460A990798FFF745
:103B3000F6FA15B0BDEC028BBDE8F08FAFF3008054
:103B40000000000065CDCD410000000065CDCDC175
:103B5000FFFFEF7F48D700104CD700103CD7001074
:103B600044D70010D80C01100000E03FCDCCCCCCE5
:103B700067666666239BB3B10B9B1BB9249B13F04E
:103B80000C0F12D0239B013B2393194606E004F14E
:103B900050036B44302203F8202C01348C42AFD206
:103BA0001F2CF4D9ACE72399F8E72399F6E7249B77
:103BB00013F0040F07D004F150036B442B2203F8D9
:103BC000202C0134A8E7249B13F0080FA4D004F1A3
:103BD00050036B44202203F8202C01349CE700BFE3
:103BE0002DE9F04F8FB0804617460D938946002986
:103BF00000F04F83002508E06C1C3B462A464946EE
:103C0000C0470D9B01330D9325460D9B1878002866
:103C100000F042832528EFD101330D9300261FE0E9
:103C200046F0010601320D92012318E046F002062B
:103C300001320D92012312E046F0040601320D928A
:103C400001230CE046F0080601320D92012306E044
:103C500046F0100601320D92012300E000234BB321
:103C60000D9A1378203B102BF8D801A151F823F0BE
:103C7000453C00105D3C00105D3C0010513C0010C4
:103C80005D3C00105D3C00105D3C00105D3C001090
:103C90005D3C00105D3C00105D3C0010393C0010A4
:103CA0005D3C00102D3C00105D3C00105D3C0010A0
:103CB000213C00100A930D9B1A78A2F13003DBB26D
:103CC000092B18D92A2A1BD00A9B0B930D9B1A7813
:103CD0002E2A25D00D9A1378683B122B5CD8DFE88A
:103CE00003F0495BAC5B3B5B5B5B5B5B5B5B575BCC
:103CF0005B5B5B5BB1000DA8FFF7FEF90B90E5E79E
:103D0000189B1A1D18921B68002B04DB0B930D9B4C
:103D100001330D93DAE746F002065B420B93F6E7B8
:103D200046F480665A1C0D925A78A2F13003DBB239
:103D3000092B0CD92A2ACDD1189B1A1D18921C6860
:103D400024EAE4730A930D9B01330D93C2E70DA897
:103D5000FFF7D2F90A90BDE746F48071531C0D932A
:103D600053786C2B01D00E4616E046F440760232B2
:103D70000D9211E046F08001531C0D935378682B8F
:103D800001D00E4608E046F0C00602320D9203E074
:103D900046F4807601320D920D9B1878672856D82C
:103DA0002528C0F06C82A0F12503422B00F2678227
:103DB000DFE813F05A0265026502650265026502DA
:103DC00065026502650265026502650265026502BB
:103DD00065026502650265026502650265026502AB
:103DE000650265026502650265026502650265029B
:103DF0006502650288016801880165026502650245
:103E0000650265026502650265026502650265027A
:103E10006502650265026502650271006502650260
:103E20006502650265026502650265026502710050
:103E3000AF01710088016801880146F40076013203
:103E40000D92A9E746F4807601320D92A4E7782816
:103E500000F215826928C0F01282A0F16902D2B284
:103E60000123934049F24102134214D113F0800F11
:103E700040F0DF8113F4806F00F00182189B1A1D5F
:103E80001892D3F800A00A9B002B40F090814FF0CD
:103E9000FF32534674E16F283DD005D858283CD0F6
:103EA000622803D1022304E0782838D026F01006D7
:103EB0000A23582835D0692803D0642801D026F079
:103EC0000C0616F4806F01D026F0010669282BD06D
:103ED000642829D016F4007F40F0968016F4807F85
:103EE00040F0AE8016F0400F00F0BF80189A111D10
:103EF0001891127805960B9904910A9903910293EF
:103F00000023019300923B462A4649464046FFF76C
:103F1000DFF9054629E00823CBE71023C9E7102382
:103F2000C7E746F02006C6E716F4007F21D116F455
:103F3000807F42D116F0400F58D0189A111D189169
:103F4000127882EAE271A1EBE27105960B98049077
:103F50000A9803900293D20F019200913B462A46A1
:103F600049464046FFF7B4F905460D9B01330D93D2
:103F70004BE6189A073222F0070202F10801189165
:103F8000516812680846002913DB08960B9C0794B9
:103F90000A9C0694049300230593C90F0291009292
:103FA00001903B462A4649464046FFF7DBF9054665
:103FB000DBE7524261EB4100E7E7189A111D1891C7
:103FC000126882EAE271A1EBE27105960B98049007
:103FD0000A9803900293D20F019200913B462A4621
:103FE00049464046FFF774F90546BEE716F0800FD4
:103FF00005D0189A111D1891B2F90020A1E7189A5E
:10400000111D189112689CE7189A073222F00702D6
:1040100002F10801189108960B9907910A990691E7
:104020000021049305910291D2E90023CDE90023F8
:104030003B462A4649464046FFF794F9054694E731
:10404000189A111D189105960B9904910A990391DC
:10405000029300230193136800933B462A46494686
:104060004046FFF735F905467FE716F0800F04D08C
:10407000189A111D189112883CE7189A111D189171
:10408000126837E746281AD0189B073323F0070336
:1040900003F10802189204960B9A03920A9A02926C
:1040A000D3E90023CDE900233B462A464946404652
:1040B000FFF7CAFB05460D9B01330D93A5E546F0BE
:1040C0002006E1E7672801D0472801D146F40066C1
:1040D000452801D0472801D146F02006189B073318
:1040E00023F0070303F10802189204960B9A039237
:1040F0000A9A0292D3E90023CDE900233B462A46DF
:1041000049464046FFF790F905460D9B01330D9354
:104110007BE516F002061CD001241898031D1893A5
:1041200005F1010A3B462A4649460078C047AEB928
:104130000D9B01330D93554667E5551C3B4649469B
:104140002020C04723462A465C1C9A45F5D81546D0
:10415000E3E70123DDF82CA02A46F5E75246DDF817
:104160002CA006E0561C3B4649462020C0472C4662
:104170003246651CA245F5D89246D9E701330A4676
:10418000197811B1511E002AF8D1A3EB0A0316F4D5
:10419000806B03D00A9A934228BF134616F002049C
:1041A00007D00C940A9E2A465D469B4623E00A9A55
:1041B0006FE6CDF830B02A4625460B9C07E002F1A9
:1041C000010B3B4649462020C04733465A465E1CF9
:1041D0009C42F4D8DDF830B02C4633460C940A9E4D
:1041E0005D469B4607E01E460AF1010A541C3B4609
:1041F0004946C04722469AF8000020B1002DF3D06E
:10420000731E002EEFD10C9C15465B461CB90D9B0E
:1042100001330D93F9E40B9E06E0551C3B464946DD
:104220002020C04723462A465C1C9E42F5D81546EE
:10423000EDE746F02106189B1A1D18921B6805969B
:10424000082204920A9A03921022029200220192FA
:1042500000933B462A4649464046FFF739F8054653
:104260000D9B01330D93D0E46C1C3B462A46494616
:104270002520C0470D9B01330D932546C5E46C1CDA
:104280003B462A464946C0470D9B01330D932546C0
:10429000BBE4DFF82080ADE4BD4208D37A1E3B4684
:1042A00049460020C04728460FB0BDE8F08F2A4697
:1042B000F5E700BFE93000100EB400B584B0014648
:1042C00005AA52F8043B039200924FF0FF320448D3
:1042D000FFF786FC04B05DF804EB03B0704700BF45
:1042E000E130001000B585B00290039100931346B1
:1042F0004FF0FF3202A90348FFF772FC05B05DF8EA
:1043000004FB00BFEB30001000BEFDE70346094A86
:10431000126842B1074A10680344074A934206D81C
:10432000044A13607047034A04491160F2E74FF0F2
:10433000FF307047D841002000000820A04700202F
:1043400008B5FFF7E1FF000000B583B08C461946C1
:104350005AB11446064B0194009363460246054841
:1043600000F058F90120FFF7CFFF034B1C46F2E79E
:1043700054D7001064D7001094E3001010B5EFF389
:104380000583DBB203B100BEFEF730FC044C02E053
:1043900054F8043B9847034B9C42F9D310BD00BF2F
:1043A00000C9001008C9001008B5034608461B687C
:1043B0001146984708BD0000F8B507460D46164659
:1043C000437D13B1002420460CE0036811462846C3
:1043D00098472EE03B7D10E03B6802211548984746
:1043E000601C0134B44214DA002CF3DD2B1913F8ED
:1043F000013C0D2B14BF002301232A5D0A2AF0D1B2
:10440000002BEED1A042E7DA3B68211A28449847F6
:10441000E2E7B04203DA3B68311A28449847002E9D
:1044200007DD354415F8013C0D2B14BF0023012393
:104430003B75F8BD280D011038B50368BBB10546C2
:104440000B4B1C6806E0294651F8042B2046FFF769
:10445000B3FF24694CB12368002BFAD0054B1B68CD
:10446000002BF0D0A342F4D1EDE700232B6038BD40
:10447000B8290020C429002038B505460C460B6831
:10448000802B05D023685A1C22601C44257138BD3E
:104490000846FFF7D1FFF5E708B5FEF7FDF8074A34
:1044A000821841F10003002B03DB054808F0F4F902
:1044B00008BD4FF0FF326FF00043F6E740420F00B7
:1044C000D819002008B5024808F0D6F908BD00BF89
:1044D000D81900202DE9F04383B006460D469046DA
:1044E0001C46FFF7D9FF8146B5F1FF3F04D044B128
:1044F000174F184B1C6807E0304608F009F80546CE
:10450000F5E7154FF5E72469BCB12368002BFAD015
:10451000124B1B680BB1A342F5D12A463146204607
:10452000B847B8F1000FEED00A238DF8073001220A
:104530000DF107012046B847E5E7B9F1000F03D1B7
:10454000284603B0BDE8F083FFF7BCFFF8E700BFE3
:10455000B9430010B8290020A9430010C429002045
:10456000094A136802E003F110021B6943B11368A2
:104570008342F8D131B903691360002303617047A6
:1045800001B11060704700BFB829002010B5054B7D
:104590001C6800E0246924B16368002BFAD09847B6
:1045A000F8E710BDB829002008B500F051F900F077
:1045B000D5FA012008BD38B5054607F0A9FF044625
:1045C00001231A4601462846FFF784FFFFF7DEFF66
:1045D000204638BDF0B5A3B004460E46FFF75CFF99
:1045E00005460023019301AF334622463946084869
:1045F000FFF778FE04463846FFF71EFFFFF7C6FFB9
:1046000015B9204623B0F0BDFFF75CFFF9E700BF06
:10461000794400100FB400B583B004A951F8040B1D
:104620000191FFF7D7FF03B05DF804EB04B07047CA
:1046300082B08C46184B984214BF00230123174ABE
:1046400032F913308B4205D08DF807C000210DF1EF
:1046500007021CE00D238DF8073000210DF1070241
:104660000029F1D1836913F0200FFBD1134613F811
:10467000012B026001311A46F2E7836913F0200F23
:10468000FBD1134613F8012B026001311A460029B1
:10469000F3D002B0704700BF008007407046002092
:1046A00010B483B000210DF1070209E0836913F013
:1046B000100FFBD10468134603F8014B01311A4671
:1046C0000029F3D09DF8070003B05DF8044B704754
:1046D00070B506460D46002405E0315D034B1868B1
:1046E000FFF7A6FF0134AC42F7DB70BD7446002033
:1046F000F8B507460E46002404E0651CFFF7D0FF1E
:1047000038552C46B44205DA0C4B1868836913F00F
:10471000100FF2D00A4B1B684BB1084B1B6850229C
:104720009A635A6B02F0380203F581535A610CB157
:104730002046F8BD6FF00204FAE700BF744600207F
:104740004829002008B5054B1B6833B1044A12689C
:1047500000219163034A1068984708BD482900204A
:104760007446002050290020034B1A68936913F007
:10477000080FFBD1704700BF7446002038B51B4BB3
:104780001B681B4A934205D02124E0B1194B1B68DA
:1047900013B138BD2224F8E7164B1860164B196088
:1047A00016492046FCF7FAFF01212046FCF7CCFF12
:1047B0000E4B1B6850229A635A6B02F0380203F5C5
:1047C00081535A61E5E70B4A1268002AE1D00025BF
:1047D0009D6329462046FCF7B7FF08492046FDF7B0
:1047E00027F9044B1D60044B1D60D2E7744600207E
:1047F000008007404829002050290020454700102C
:1048000038B50D461C46104B1860101E05DB10F025
:10481000020F15D00B21FCF709FE002C06DB14F06B
:10482000020F0FD00B212046FCF700FE2946064B55
:104830001868FDF7CDFF01210448FFF791FE38BD50
:104840000221E8E70221EEE774460020E013002091
:1048500008B5074B1B78074B1B78074B1B780123C8
:1048600000224FF4E1310548FFF7CAFF08BD00BF41
:1048700014130110101301100C1301100000074055
:1048800070470000014B00221A70704799470020C2
:104890004B79FF2B0BD18B795BB9CB79012B0AD1EB
:1048A000082A0AD98A78064B1A7009207047002016
:1048B000704700207047002070470020704700BFFD
:1048C0009947002001207047012923D108B591881C
:1048D000114B1B78994201D0002008BD5378012B61
:1048E00003D0022B0FD00020F7E7518811F4807F0E
:1048F00006D0480AC1F3402201F07F01FEF725F9F6
:104900004FF0FF30F6E7642200210846FEF7BEF8BC
:104910000120E2E7012070479947002000487047D6
:10492000100E011001290FD108B594465378012BC0
:104930000CD19388072B01D0002008E0A623044A5D
:10494000614601F0F7FB02E001207047002008BD3E
:10495000680D01100123037000487047480D0110D5
:1049600008B50B68B3F5966F00D008BD002211465C
:104970004FF0FF30FEF7E9F8024B1860024B196068
:10498000704700BF4C2900205429002008B5FDF7CE
:1049900083FE0E4A821841F10003002B11DB0C4804
:1049A00007F07AFF60B100214FF0FF3001F04AFAC2
:1049B000002001F043FD0028F5D1054807F05CFF19
:1049C00008BD4FF0FF326FF00043E8E740420F00B0
:1049D0006846002038B5184B1B681BB3EFF31082F4
:1049E00072B6D3E8CF0F01210028FAD1C3E8401FE7
:1049F0000028F6D1BFF35F8F0F494A6000230F48AC
:104A000003700968C1E88F3F82F3108800240025F5
:104A10000B4B1878FCF778FE40B90024002520469F
:104A2000294638BD4FF47A740025F1E7044B187815
:104A3000FCF794FEF3E700BF084600209B470020E8
:104A40009A47002008B5024B1878FCF787FE08BD8E
:104A50009A47002070B584B0064614461D46FDF7FF
:104A60001BFE221845EB0103002B0BDB9DF82810E1
:104A7000029109990191089900913046FDF70CFCCB
:104A800004B070BD4FF0FF326FF00043EEE7F0B5B9
:104A900085B005460C4616461F46FDF789FB9DF876
:104AA00028300293019700962A462346FFF7D2FF4B
:104AB00005B0F0BD10B582B00021224807F0F8FE25
:104AC00000BB214B1B68DBB1EFF3108272B6D3E859
:104AD000CF0F01210028FAD1C3E8401F0028F6D1EA
:104AE000BFF35F8F18494A6018480378DBB201248E
:104AF000047008680021C0E88F1F82F31088BBB1E2
:104B000002B010BD00214FF0FF3001F09BF90020F2
:104B100001F06EFC04460B4807F0AEFE002CEFD00F
:104B20000B4B1B68002BEBD00A4A10689847E7E74D
:104B300000940B46084A4FF47A700021FFF7A7FF54
:104B4000DEE700BF68460020084600209B470020A3
:104B50004C29002054290020D549001010B582B0FE
:104B60004FF050431C68FDF723FBFDF705FCA04206
:104B70002DD1244B1B780021084602F001F9224B6D
:104B80001B6853B30120FDF78BF8C0B21F4C207097
:104B90001F49FCF703FE01212078FCF7D5FD0E200C
:104BA000FCF7F0FD0446E0B10120FCF705FD0146ED
:104BB0001848FDF7D3F8002217490E20FCF71EFE17
:104BC00001211648FFF7CCFC204602B010BD144B63
:104BD000144AC6211448FFF7B7FB0B48FDF77CF8D1
:104BE000D0E70C4A002313605360012200920F4A61
:104BF0004FF47A700021FFF74AFFC443E40F002C02
:104C0000E2D0DDE718130110684600209A47002023
:104C1000B54A001008460020454A0010F81300204D
:104C2000FCCD0010400E0110C0D70010D549001077
:104C300008B5002001F0C2FB08BD000038B50446ED
:104C40000D46FFF7F5FF90B3002001F0D1FB88B3CC
:104C5000FDF722FD1A4A821841F10003002B16DBF2
:104C6000184807F019FE40B3FFF7E2FF18B1002023
:104C700001F0BEFB80B900214FF0FF3001F0E2F8F7
:104C80006FF002040F4807F0F7FD204638BD4FF0E3
:104C9000FF326FF00043E3E72A462146002001F08F
:104CA000B3FB04460028EDD16FF00204EAE76FF091
:104CB0000204EAE76FF00204E7E76FF00204E4E7BA
:104CC00040420F0068460020F8B507460D46FDF744
:104CD000E3FC2E4A821841F10003002B04DB2C4830
:104CE00007F0DAFD28B9F8BD4FF0FF326FF000434E
:104CF000F5E7FFF79DFF002845D1264B0020002156
:104D0000C3E90001224807F0B7FDECE700214FF0AE
:104D1000FF3001F097F8002001F090FBFFF788FFCB
:104D20000028EFD0002001F007FCF8B1AC42E9DA2E
:104D30002E1B002001F000FC864200DC30460028DB
:104D4000E4D002463919002001F0D4FB06460021C8
:104D50004FF0FF3001F076F8002001F06FFB344493
:104D6000FDF79AFC0B4BC3E90001DFE7FDF794FC6C
:104D7000084A13685268084E9B1942F100028342A8
:104D80008A41D3D2BEE70024D0E700BF40420F00E3
:104D900068460020A01B002020A1070000487047A3
:104DA000BC0E011000487047680E011010B5044693
:104DB000144B1B786BB18CB9134B40F209425A80EB
:104DC000012301335B009BB20F4843F4407303801F
:104DD00010BD11210B4800F04FF8ECE7052C0ED860
:104DE0000A4B53F824000023122BEAD8C25C002A95
:104DF000E7D00133044921F81320DBB2F4E70020A7
:104E0000E6E700BF7846002088290020500E0110F8
:104E100000B58BB045F24730FDF788FE034601220E
:104E2000092101A89847042801D100230EE00A4B6C
:104E30000A4A2F210A48FFF787FAC3F10F022832E6
:104E40006A4412F8241C074AD1540133072BF4DDBD
:104E50000BB05DF804FB00BF50D80010F00E01103D
:104E600058D80010444600200346024A03CA18607E
:104E7000596070474446002008B511B18C460022A5
:104E800008E0104B104A3B211048FFF75DFA37331A
:104E9000835401320CF1FF3393420FD90F2A0DD8FE
:104EA00053080B49CB5CD14301F0010189000B4150
:104EB00003F00F03092BEADC3033E9E700238354C6
:104EC00008BD00BFA8D80010D00E011058D800109F
:104ED0004446002030B400F07F05C3094FEA450C7A
:104EE0000CEBD01C244C04EB4C1C8CF8020083F01F
:104EF00001008CF8010000208CF80300ACF81810B9
:104F00008CF81B20DBB9EA001C49114403EB450077
:104F1000194A02EB4012916003EB4501164A02EB7D
:104F200041129268002111607DB903EB4502124BDA
:104F300003EB42135960124ADA6030BC70471149E2
:104F400001EBC501CCF80810E6E753B96A1ED200A0
:104F50000D49114403EB4503074A02EB4313596023
:104F6000EBE7691E094A02EBC10203EB4501024B64
:104F700003EB41135A60E0E7E84100208400105041
:104F800000011050800010500C001050080010500C
:104F900008B5038B3F3323F03F03C27E022A08D0BB
:104FA00008490A68C26013440B60074A934202D85A
:104FB00008BD5B00F4E7054B054A52210548FFF7A1
:104FC000C3F900BFEC450020FF0F1050BCDA001001
:104FD000780F011000DB001070B500F07F054FEA7C
:104FE000450C0CEBD0130C4C04EB4314FFF772FF91
:104FF00005B970BD218B2046FFF7CAFFE27EE3684A
:1050000083F0A04383F4801343EA826343F00043B8
:1050100062681360EDE700BFE841002008B500F0CA
:105020007F035B0003EBD010024B03EB401000F05A
:105030001BF908BDE841002008B520B901210E2068
:10504000FCF782FB08BD034B034A40F2971103486B
:10505000FFF77AF970DB0010680F011000DB001019
:1050600008B528B9002211468020FFF7D7FF08BDF8
:10507000034B044A40F2A1110348FFF765F900BF52
:1050800070DB0010580F011000DB0010024B4FF4D2
:105090008032DA64704700BF0020115070B548BB01
:1050A000064600F0C1F8174C0C23A367FF221649EF
:1050B0000E20FCF7A3FB40252A460021134806F0EA
:1050C000B5FC002229461046FFF786FF002229463C
:1050D0008020FFF781FF07F0C3FB012525644FF017
:1050E0000053E3640A4BC4F890303046FFF7CEFF1C
:1050F000284670BD074B084A40F263110748FFF786
:1051000023F900BF0000115011070020E8410020E2
:1051100010D0010070DB00108C0F011000DB0010BC
:10512000044B197021B1044B4FF40032C3F89020A6
:10513000704700BF8A470020002011500B7813F001
:105140007F0F02D14B78052B00D070474B88DBB224
:10515000014A1360F9E700BF00001150CA7802F05D
:105160000302012A09D008B50B468988C1F30A0158
:105170009878FFF731FF012008BD0020704708B57F
:1051800007F06EFB08BD000010B530B908461146A7
:105190001A46FFF743FF012010BD034B034A4FF4AB
:1051A00001710348FFF7D0F870DB0010480F0110C1
:1051B00000DB001008B511F07F0304D1CA090ED13D
:1051C0000220084A90665B0003EBD1134FF40062A3
:1051D0000021054800EB431007F05AFB08BD0120F1
:1051E000EFE700BF00201150E841002008B511F0A2
:1051F0007F0300D108BD5B0003EBD113044800EB33
:1052000043100022C2706FF4006107F041FBF1E728
:10521000E841002004E011F8012B00F8012B1A46A8
:10522000531E002AF7D1704708B54FF080530A4A41
:10523000136002F580521360084B9B6813F0805F87
:10524000FAD04FF480520021054806F0EFFB054BE1
:1052500009225A6708BD00BF00200240000002403A
:10526000000010500000115070B504460D4616465F
:10527000837EABB9A6820023E3820123A376256156
:10528000204607F0F1FA20B10B4B4FF40032C3F87F
:105290009020204607F004FB50B10123237770BD16
:1052A00081780648FFF7B6F9204607F0CDFAE1E726
:1052B000204607F0D1FAF2E70020115060DC001020
:1052C00038B50546002408E0D21A1B4B03EB421305
:1052D000DB68284698470134E4B2184B1B78224615
:1052E000591CA14215DBA342EED9154B1B6813EBE9
:1052F0004413EDD140F2252212491348FFF78AF9F1
:105300004FF0E023D3F8F03D13F0010F13D000BEAF
:1053100011E00E4C54220021204606F087FB4FF08E
:10532000FF336360A360E36023612022FF2104F167
:10533000140006F07BFB38BD601001108947002087
:10534000842200202C10011098DC00105C24002026
:1053500008B5FFF7B5FF00F043FF08BD70B505467F
:105360000C461646486900F045FF63693246012144
:105370002846984770BD00002DE9F04F83B0824663
:10538000481EC0B2FFF70EFD20B18346437801935B
:10539000022B11D040F2D63262496348FFF73AF946
:1053A0004FF0E023D3F8F03D13F0010F00D000BE22
:1053B000002003B0BDE8F08FC279C2F340105B4B10
:1053C000197860F304111970C2F38012C9B262F344
:1053D000451119700BF10908BBF802309B447BE0C2
:1053E00098F8033098F8002090447DE040F2F132C4
:1053F0004C494D48FFF70EF94FF0E023D3F8F03D4C
:1054000013F0010F00D000BE0020D2E7F31A484A83
:1054100002EB4319D9F810302A46414650469847C6
:10542000082801D985421ED20134E4B2414B1B78D1
:1054300026465A1CA2424ADBA342E7D93E4B1B68D0
:1054400013EB4419E6D140F2FA3236493648FFF7F9
:10545000E1F84FF0E023D3F8F03D13F0010F00D056
:1054600000BE0020A5E73B464F468146012B11D0E8
:1054700000218B4224D998F802200A44D2B22B484A
:1054800010440079FF280BD12848024414710131DF
:10549000C9B2EEE73969294A9142E9D1019BE7E7B0
:1054A00040F219421F492048FFF7B4F84FF0E023BB
:1054B000D3F8F03D13F0010F00D000BE002078E7D4
:1054C00023464A4641461E4801F066FDC844194B32
:1054D0001B7801339E4212DCD84520D298F8013067
:1054E0000B2B3FF47DAF012398F80120042A7FF4B1
:1054F0007DAFABEB0805ADB200241F4696E74FF435
:10550000856208490848FFF785F84FF0E023D3F893
:10551000F03D13F0010F00D000BE002049E701204C
:1055200047E700BF0010011098DC00105C24002049
:10553000601001108947002084220020B16600100D
:10554000702400207047704700207047002070478B
:1055500038B505460C464B881A0AD8B2531E0E2B96
:1055600064D8DFE803F0082D4E6363592D6363634D
:10557000636363632200FFF711FC024628B1122324
:105580002146284600F0D6FD51E040F23A422C492F
:105590002C48FFF73FF84FF0E023D3F8F03D13F02D
:1055A000010F00D000BE002041E0FFF7B7F902462E
:1055B00000283DD043882146284600F0BBFD36E058
:1055C000022A09D0FFF7C2FF024698B3538821464A
:1055D000284600F0AFFD2AE0FFF7E4FB0246002872
:1055E000F4D140F2614216491648FFF713F84FF024
:1055F000E023D3F8F03D13F0010F00D000BE0020EF
:1056000015E0A188FFF7D2FB0246A8B10378214636
:10561000284600F08FFD0AE0FFF796FF024668B1CA
:1056200003782146284600F085FD00E0002038BDC3
:105630000020FCE70020FAE70020F8E70020F6E76A
:10564000E80F011098DC00107047704770477047F2
:10565000034B5878C0B2003818BF0120704700BF14
:105660005C240020024B1878C0F38000704700BF14
:105670005C240020024B1878FF3818BF01207047C7
:105680002C140020F8B506460D46FFF7F3FF074639
:10569000002854D105B354220021374806F0C6F93A
:1056A000364B00221A70364C2046FCF715FB354B62
:1056B0001C60354C2046FCF759FB143C204602F098
:1056C00025F8324B1C60324B23B13248FFF742F9C8
:1056D000314B1860002417E04FF4E9722F4930482D
:1056E000FEF798FF4FF0E023D3F8F03D13F0010FE1
:1056F00025D000BE23E0D21A2A4B03EB42135B688D
:105700007BB198470134E4B2224B1B782246591CE6
:10571000A14216DBA342EED91F4B1B6813EB4413C7
:10572000EDD14FF4F8721D491D48FEF773FF4FF09D
:10573000E023D3F8F03D13F0010F00D000BE38464F
:10574000F8BD194B1E7029463046FFF7A7FC0746E7
:1057500018B13046FFF770FCF1E74FF4FC720F49C7
:105760000F48FEF757FF4FF0E023D3F8F03D13F05A
:10577000010FE4D000BEE2E75C2400208B4700204C
:1057800054240020B024002024140020B42400203D
:105790005549001089470020842200205010011034
:1057A00098DC0010601001102C14002070B51A4B0A
:1057B0001E788B7813F0700F0ED10C46174B99782A
:1057C000204601F079FB0546B0B121463046FFF78F
:1057D000C5FC0546284670BD40F20B5210491148E1
:1057E000FEF718FF4FF0E023D3F8F03D13F0010F60
:1057F00000D000BE0025EDE740F20C5208490948F0
:10580000FEF708FF4FF0E023D3F8F03D13F0010F4F
:10581000E0D000BEDEE700BF2C1400205C24002096
:10582000B80F011098DC00102DE9F84F80460C46A7
:1058300016461F46DDF82890DDF82CA0002526E04E
:1058400040F2E7421F492048FEF7E4FE4FF0E02314
:10585000D3F8F03D13F0010F00D000BE4FF0000B65
:105860005846BDE8F88F4FF49D6216491648FEF77A
:10587000D1FE4FF0E023D3F8F03D13F0010FEFD04D
:1058800000BEEDE78AF8003023781C440135AE42B3
:1058900014DD6378052BD3D1E17801F00301B9421F
:1058A000CED121464046FFF781FF83460028DAD05B
:1058B000A378DA09E6D189F80030E5E74FF0010B6B
:1058C000CEE700BFC80F011098DC001008B501F04A
:1058D0007F00400000EBD1103030044B1844044BE3
:1058E0001968043001F0A2FA08BD00BF5C24002052
:1058F000B024002008B501F07F00400000EBD1107B
:105900003030044B1844044B1968043001F0B6FAE7
:1059100008BD00BF5C240020B024002070B51F48E3
:10592000007801F07F051E4C04EB450C0CEBD11CFC
:105930009CF8344014F0010F1FD1CE09184C04EB31
:105940004504344494F834C04CF0010C84F834C05D
:105950003034FFF719FCF8B9227922F001022271E4
:10596000227922F0040222714FF0E023D3F8F03DB7
:1059700013F0010F10D000BE0EE040F23952094979
:105980000948FEF747FE4FF0E023D3F8F03D13F04F
:10599000010F00D000BE002070BD00BF2C140020FD
:1059A0005C240020A80F011098DC001038B501F02D
:1059B0007F05CC090A4B1878FFF7FCFB094B03EB7A
:1059C0004503234493F8342042F0020283F8342044
:1059D00093F8342042F0010283F8342038BD00BF30
:1059E0002C1400205C24002038B501F07F05CC0980
:1059F0000A4B1878FFF7FAFB094B03EB45032344E6
:105A000093F8342022F0020283F8342093F83420F3
:105A100022F0010283F8342038BD00BF2C1400208E
:105A20005C24002001F07F02044B03EB420303EBF4
:105A3000D11191F83400C0F3400070475C2400207D
:105A40002DE9F04182B006460C46002000F0D2FB62
:105A5000237803F06003602B21D0402B32D02278D2
:105A600002F01F02012A00F00181022A00F04281A7
:105A7000002A40F0C981202B2ED0002B4DD1637815
:105A8000092B00F2E880DFE813F0D300C300E60042
:105A9000B300E6005200AD00E60061006E004FF476
:105AA0003572B249B248FEF7B5FD4FF0E023D3F8A6
:105AB000F03D13F0010F00D000BE0025284602B0D3
:105AC000BDE8F081AB4800F095FB2246012130464D
:105AD000FEF728FF0546F1E7A388DBB20F2B00F2A3
